:100000000C9481000C94A9000C94A9000C94A900F4
:100010000C94A9000C94A9000C94A9000C94A900BC
:100020000C94A9000C94A9000C94A9000C94A900AC
:100030000C94A9000C94A9000C94A9000C94A9009C
:100040000C94DF070C94A9000C94E3030C94BD03FB
:100050000C94A9000C94A9000C94A9000C94A9007C
:100060000C94AF040C94A900140B260B290B300B35
:10007000370B650B6C0B790B860B920B920B920B6B
:10008000920B920B920B920B920B920B920B920B88
:10009000920B920B920B920B920B920B920B920B78
:1000A000920B920B920B920B140B210B260B290B2C
:1000B000300B370B3E0B4B0B580B0000000025009C
:1000C00028002B00040404040404040402020202B5
:1000D000020203030303030301020408102040800B
:1000E000010204081020010204081020000000088A
:1000F00000020100000304070000000000000000EF
:10010000AF0D11241FBECFEFD8E0DEBFCDBF11E091
:10011000A0E0B1E0E0E1F3E202C005900D92A03B67
:10012000B107D9F723E0A0EBB1E001C01D92AF3CCD
:10013000B207E1F710E0C1E8D0E004C02197FE016A
:100140000E943F11C038D107C9F70E9429080C94BA
:1001500086110C940000CF92DF92EF92FF920F93E2
:100160001F93CF93DF936C017A018B01C0E0D0E045
:10017000CE15DF0581F0D8016D918D01D601ED918D
:10018000FC910190F081E02DC6010995892B11F0B9
:100190002196EECF7E01C701DF91CF911F910F9184
:1001A000FF90EF90DF90CF900895FC01538D448D28
:1001B000252F30E0842F90E0821B930B541710F012
:1001C000CF96089501970895FC01918D828D98171F
:1001D00061F0828DDF01A80FB11D5D968C91928D2B
:1001E0009F5F9F73928F90E008958FEF9FEF089528
:1001F000FC01918D828D981731F0828DE80FF11DF1
:10020000858D90E008958FEF9FEF0895FC01918D0B
:10021000228D892F90E0805C9F4F821B91098F7304
:100220009927089584E692E00E94060121E0892B37
:1002300009F420E0822F0895FC01848DDF01A80FCE
:10024000B11DA35ABF4F2C91848D90E001968F73FE
:100250009927848FA689B7892C93A089B1898C911D
:10026000837080648C93938D848D981306C002886C
:10027000F389E02D80818F7D80830895EF92FF9236
:100280000F931F93CF93DF93EC0181E0888F9B8DB9
:100290008C8D981305C0E889F989808185FD26C079
:1002A000F62E0B8D10E00F5F1F4F0F731127E02EFE
:1002B0008C8DE8120CC00FB607FCFACFE889F989DB
:1002C000808185FFF5CFCE010E941C01F1CF8B8D7F
:1002D000FE01E80FF11DE35AFF4FF0829FB7F8943B
:1002E0000B8FEA89FB89808180620AC09FB7F894EE
:1002F000EE89FF896083E889F98980818370806451
:1003000080839FBF81E090E0DF91CF911F910F919B
:10031000FF90EF900895CF93DF93EC01888D8823B1
:10032000C9F0EA89FB89808185FD05C0A889B98962
:100330008C9186FD0FC00FB607FCF5CF808185FF3D
:10034000F2CFA889B9898C9185FFEDCFCE010E94AB
:100350001C01E7CFDF91CF91089580E090E0892BD9
:1003600029F00E94120181110C940000089585ED7E
:100370008093BC008091BC0084FDFCCF1092B6013C
:1003800008954091FB01262F30E0240F311D2132CA
:100390003105DCF42091B6012430C9F4FC0180E081
:1003A00090E0861758F43091FB012191DC01A552B1
:1003B000BE4FA30FB11D2C930196F3CF8091FB018B
:1003C000680F6093FB0180E0089581E0089582E06A
:1003D0000895089508950895E091BA018091B901B2
:1003E000E81730F4F0E0E554FE4F808190E0089586
:1003F0008FEF9FEF08959091BA018091B9019817FE
:1004000050F4E92FF0E0E554FE4F208130E09F5F8B
:100410009093BA0102C02FEF3FEFC9010895809178
:10042000B90190E02091BA01821B91090895CF9201
:10043000DF92EF92FF920F931F93CF93DF937C0194
:10044000CB018A0120914202222389F0EB016B014A
:10045000C40ED51ECC15DD0569F06991D701ED916B
:10046000FC910190F081E02DC7010995F3CF642F35
:100470000E94C101C801DF91CF911F910F91FF90A0
:10048000EF90DF90CF900895CF93DF931F92CDB779
:10049000DEB76983209142022223D1F02091B70177
:1004A000203240F021E030E0FC013383228380E001
:1004B00090E015C08091B801E82FF0E0ED5BFD4FB2
:1004C000998190838F5F8093B8018093B70105C0B5
:1004D00061E0CE0101960E94C10181E090E00F90A1
:1004E000DF91CF910895089580E090E0089561151F
:1004F000710579F0FB0101900020E9F73197AF0118
:10050000461B570BDC01ED91FC910280F381E02D3D
:10051000099480E090E008958F929F92AF92BF92ED
:10052000EF92FF920F931F93CF93DF93CDB7DEB778
:10053000A1970FB6F894DEBF0FBECDBF7C01FA01C4
:10054000CB0119A2223008F42AE08E010F5D1F4F63
:10055000822E912CA12CB12CBF01A50194010E94E7
:100560001D11F901CA01015011096A3014F4605DCE
:1005700001C0695CD8016C93232B242B252B61F7D8
:10058000B801C7010E947702A1960FB6F894DEBFAA
:100590000FBECDBFDF91CF911F910F91FF90EF90D4
:1005A000BF90AF909F908F9008957F928F929F926F
:1005B000AF92BF92CF92DF92EF92FF920F931F9371
:1005C000CF93DF938C016A017B01722E9A01AB01FC
:1005D000C701B6010E940811882319F064EA71E08E
:1005E00027C046015701E894B7F82FEF3FEF4FE7D8
:1005F0005FE7C501B4010E94081181110DC02FEF02
:100600003FEF4FE75FE7C501B4010E943E0F1816A8
:100610001CF468EA71E00CC02FEF3FEF4FE75FE496
:10062000C701B6010E949610181694F46CEA71E0A6
:10063000C801DF91CF911F910F91FF90EF90DF9054
:10064000CF90BF90AF909F908F907F900C94770247
:100650002FEF3FEF4FE75FECC701B6010E943E0F5F
:1006600087FDE4CF20E030E0A901C701B6010E9478
:100670003E0F87FF0FC0D801ED91FC910190F081F2
:10068000E02D6DE2C8010995EC01F7FAF094F7F856
:10069000F09402C0C0E0D0E0B12C60E070E080E0F7
:1006A0009FE37B1441F020E030E040E251E40E94FF
:1006B000430FB394F6CFA70196010E94D20E6B01AF
:1006C0007C010E94B50F4B015C012AE0AB01BC012B
:1006D000C8010E948C02C80FD91F7720E9F1C5011B
:1006E000B4010E94E40F9B01AC01C701B6010E9456
:1006F000D10E6B017C01D801ED91FC910190F0814C
:10070000E02D6EE2C8010995C80FD91F20E030E046
:1007100040E251E4C701B6010E949B104B015C010D
:100720000E94B50F6B01E12CF12C2AE0B701A60164
:10073000C8010E948C02C80FD91FC701B6010E94D0
:10074000E40F9B01AC01C501B4010E94D10E6B0105
:100750007C017A947110DACFCE01DF91CF911F9195
:100760000F91FF90EF90DF90CF90BF90AF909F9050
:100770008F907F9008950C9477021F920F920FB67E
:100780000F9211242F933F934F935F936F937F9317
:100790008F939F93AF93BF93EF93FF9384E692E081
:1007A0000E941C01FF91EF91BF91AF919F918F919A
:1007B0007F916F915F914F913F912F910F900FBE5D
:1007C0000F901F9018951F920F920FB60F92112441
:1007D0002F938F939F93EF93FF93E0917402F09187
:1007E00075028081E0917A02F0917B0282FD12C055
:1007F000908180917D028F5F8F7320917E0282179E
:1008000051F0E0917D02F0E0EC59FD4F958F80931F
:100810007D0201C08081FF91EF919F918F912F9177
:100820000F900FBE0F901F901895CF93FC01C481BD
:1008300021E020934202C09363021092B80110920B
:10084000B7018385682B81E093E00E944402909178
:10085000B701913208F045C08091B6018111FCCFFB
:1008600082E08093B60181E08093B5018FEF8093A1
:1008700041021092400290933F02A3E4B2E0EFE104
:10088000F2E080E0981721F02D9121938F5FFACF4D
:1008900010921E0280911E02CC0FC82BC0931E0224
:1008A0008091B401813061F41092B40180911E02F4
:1008B0008093BB008091BC0083FDF8CF85EC01C024
:1008C00085EE8093BC008091B6018230E1F3809187
:1008D00041028F3F31F080914102803211F08091CE
:1008E00041021092B8011092B70110924202CF91CA
:1008F00008950F931F93CF938C01C62F0E94150468
:100900006C2F6460C8010E9415046C2F6B7FC801B6
:100910000E94150483EC90E00197F1F7CF911F91AD
:100920000F9108950F931F93CF93DF938C01C62FE0
:10093000D42F607F642B0E94790480E1C89FB001AE
:1009400011246D2BC801DF91CF911F910F910C9451
:10095000790441E00E94920481E090E008951F92A2
:100960000F920FB60F9211242F933F934F935F93E3
:100970006F937F938F939F93AF93BF93EF93FF9367
:100980008091B900887F803609F49CC068F5883270
:1009900009F45BC090F4803109F454C038F4882322
:1009A00009F4F6C0883009F44DC0F6C0883109F466
:1009B0004CC0803209F45DC0EFC0803409F468C0D7
:1009C00048F4803309F455C0883309F0E5C08093BA
:1009D0004102D8C0803509F44FC0883509F45DC0A4
:1009E000883409F0D9C0D6C0883909F4C7C0A8F442
:1009F000883709F467C038F4883609F463C0803753
:100A000009F460C0C9C0883809F4B8C0803909F455
:100A10005FC0803809F0C0C05BC0803B09F486C06D
:100A200038F4803A09F466C0883A09F47FC0B4C04B
:100A3000803C09F4A7C0883C09F4A4C0883B09F4B1
:100A40008AC0AAC080911E0210C09091400280917D
:100A50003F02981770F5E091400281E08E0F80937D
:100A60004002F0E0E15EFD4F80818093BB0085ECA9
:100A700086C0809341028EC0E091400281E08E0FDB
:100A8000809340028091BB00F0E0E15EFD4F8083E7
:100A90009091400280913F026EC0E091400281E05F
:100AA0008E0F809340028091BB00F0E0E15EFD4F2D
:100AB00080838091B50181116DC081E08093B40184
:100AC00084EA61C083E08093B60110921D02CFCF0B
:100AD00080911D02803208F051C0E0911D0281E03A
:100AE0008E0F80931D028091BB00F0E0E350FE4F1B
:100AF0008083BDCF85EC8093BC001092B6018091BD
:100B00001D02803230F4E0911D02F0E0E350FE4F10
:100B1000108260911D0270E0E091B001F091B1018E
:100B20008DEF91E0099510921D0236C084E080930C
:100B3000B6011092FC011092FB01E091B201F0911C
:100B4000B30109958091FB01811105C081E080937B
:100B5000FB011092DB01E091FC0181E08E0F80939C
:100B6000FC01F0E0E552FE4F80818093BB00909144
:100B7000FC018091FB01981708F479CF85E88093F8
:100B8000BC000AC085EC8093BC001092B60104C082
:100B9000109241020E94B701FF91EF91BF91AF9176
:100BA0009F918F917F916F915F914F913F912F9185
:100BB0000F900FBE0F901F901895CF93DF93EC010D
:100BC0008A859B85AC85BD858E839F83A887B987E1
:100BD0000E94D3076A837B838C839D8381E0898312
:100BE0008883DF91CF910895CF93DF93EC018E81BD
:100BF0009F81A885B9858A839B83AC83BD830E942E
:100C0000D3076A877B878C879D8781E08983888368
:100C1000DF91CF9108952F923F924F925F926F9202
:100C20007F928F929F92AF92BF92CF92DF92EF927C
:100C3000FF920F931F93CF93DF93D82FC92F8B0170
:100C40000E94950E24E630E040E050E00E941D1125
:100C500049015A019B01AC0160E876E988E990E01E
:100C60000E940D116B017C01F80191828082ED2FB1
:100C7000FC2F2191822F022E000C990BC0970A970E
:100C8000C0F32E3239F51F0180E8882E86E9982EB0
:100C900088E9A82EB12C9AE0492E512C612C712C98
:100CA000F101C1911F010C2E000CDD0BE097CA3041
:100CB000D10580F4C501B401A30192010E941D1168
:100CC00049015A01DE010E945011C60ED71EE81ECE
:100CD000F91EE6CFA5E0B0E0A70196010E944511FC
:100CE0006F5F7F4F8F4F9F4F23E030E040E050E039
:100CF0000E941D11F8012283338344835583168299
:100D0000DF91CF911F910F91FF90EF90DF90CF90E7
:100D1000BF90AF909F908F907F906F905F904F901B
:100D20003F902F900895FF920F931F93CF93DF93DF
:100D3000EC01F8802DE2F21201C02196CE010E9452
:100D4000950E9B01AC01A4E6B0E00E944511FE01A6
:100D50004991242F042E000C330B205331092A30E3
:100D60003105A8F34E3241F52181022E000C330BE0
:100D7000205331092A303105F8F44AE0429F8001BE
:100D8000439F100D1124012E000C220B330B600F1A
:100D9000711F821F931F0281002E000C110B005344
:100DA00011090A30110540F4012E000C220B330BFF
:100DB000600F711F821F931F2DE2F21207C09095E2
:100DC0008095709561957F4F8F4F9F4FDF91CF91A9
:100DD0001F910F91FF9008953FB7F8948091CB0336
:100DE0009091CC03A091CD03B091CE0326B5A89BE2
:100DF00005C02F3F19F00196A11DB11D3FBFBA2FAD
:100E0000A92F982F8827820F911DA11DB11DBC010C
:100E1000CD0142E0660F771F881F991F4A95D1F7D1
:100E20000895CF93DF93CDB7DEB728970FB6F89428
:100E3000DEBF0FBECDBF98E0E0E0F1E0DE0111962D
:100E400001900D929A95E1F79091C303981710F4D1
:100E50008FEF890FFE013196E80FF11DE80FF11DAC
:100E60006081606840E08AEB93E028960FB6F894C2
:100E7000DEBF0FBECDBFDF91CF910C94920440E056
:100E800061E08AEB93E00E9492048BE39FE101977B
:100E9000F1F70895482F50E060E070E02AE08AEB17
:100EA00093E00C948C0290E0FC01E451FF4F2491FC
:100EB000FC01E852FF4F3491FC01EC53FF4FE491E9
:100EC000EE23B1F1222339F1233091F038F42130AF
:100ED000A9F0223001F584B58F7D12C0273091F042
:100EE0002830A1F02430B9F4809180008F7D03C0B8
:100EF000809180008F77809380000DC084B58F77BC
:100F000084BD09C08091B0008F7703C08091B0008C
:100F10008F7D8093B000F0E0EE0FFF1FE654FF4F8F
:100F2000A591B4918FB7F894EC91E32BEC938FBF1C
:100F300008958F929F92AF92BF92CF92DF92EF92DD
:100F4000FF926B017C010E94EC064B015C01C11415
:100F5000D104E104F104F1F00E94EC06DC01CB01C4
:100F600088199909AA09BB09883E9340A105B105D2
:100F700070F321E0C21AD108E108F10888EE880E6A
:100F800083E0981EA11CB11CC114D104E104F1043A
:100F900019F7DDCFFF90EF90DF90CF90BF90AF902B
:100FA0009F908F9008952FB7F8946091C703709128
:100FB000C8038091C9039091CA032FBF08951F925F
:100FC0000F920FB60F9211242F933F938F939F93FD
:100FD000AF93BF938091C7039091C803A091C903B9
:100FE000B091CA033091C60323E0230F2D3720F4BC
:100FF0000196A11DB11D05C026E8230F0296A11D73
:10100000B11D2093C6038093C7039093C803A09398
:10101000C903B093CA038091CB039091CC03A091F4
:10102000CD03B091CE030196A11DB11D8093CB03DA
:101030009093CC03A093CD03B093CE03BF91AF9117
:101040009F918F913F912F910F900FBE0F901F9006
:101050001895789484B5826084BD84B5816084BD20
:1010600085B5826085BD85B5816085BD80916E0046
:10107000816080936E001092810080918100826077
:1010800080938100809181008160809381008091B4
:1010900080008160809380008091B10084608093A3
:1010A000B1008091B00081608093B00080917A009F
:1010B000846080937A0080917A00826080937A00C5
:1010C00080917A00816080937A0080917A008068B4
:1010D00080937A001092C100E0917402F091750241
:1010E00082E08083E0917002F09171021082E091C1
:1010F0007202F09173028FEC808310927C02E09177
:101100007802F091790286E08083E0917602F09196
:101110007702808180618083E0917602F09177028E
:10112000808188608083E0917602F09177028081EF
:1011300080688083E0917602F091770280818F7DD4
:1011400080831092BA011092B9011092B8011092E6
:10115000B7011092B60181E08093B5011092B401FD
:1011600082E10E94530783E10E9453078091B900F6
:101170008E7F8093B9008091B9008D7F8093B900F4
:1011800088E48093B80085E48093BC0089EE91E008
:101190009093B3018093B2018AEE91E09093B101F4
:1011A0008093B0011092BF038091C303823018F086
:1011B00098E09093BF039091C403992339F0813054
:1011C00029F48091BF0384608093BF0362E370E0E1
:1011D00080E090E00E9499076091C5038AEB93E05C
:1011E0000E94150468EE73E080E090E00E94990789
:1011F00060E38AEB93E00E947904CBE4D6E4CE016D
:101200000197F1F760E38AEB93E00E94790421975C
:10121000F1F760E38AEB93E00E94790483E592E0C2
:101220000197F1F760E28AEB93E00E947904609104
:10123000BF03606240E08AEB93E00E94920484E086
:101240008093C00340E06CE08AEB93E00E9492043C
:101250000E943F0782E08093C10340E066E08AEB92
:1012600093E00E94920440E062E08AEB93E00E94E7
:1012700092048BE39FE10197F1F788E08093C50327
:1012800060E08AEB93E00E94150482E0382ED1E002
:1012900094E6C92ED12CE12CF12C20E4822E22E4FC
:1012A000922E2FE0A22EB12C84E692E00E9406013D
:1012B000181619060CF043C484E692E00E94E4007C
:1012C000C82F8091AA039091AB03A091AC03B09179
:1012D000AD030196A11DB11D8093AA039093AB03AA
:1012E000A093AC03B093AD03C43209F45FC2E091A4
:1012F000A403C53234F4CA3071F0CD3009F063C2B2
:101300000AC0CA3241F0CC3209F05DC2809191032B
:101310008C2780939103EF3008F035C2F0E0ED5652
:10132000FC4F108280919203882309F41CC1209104
:1013300093033FEB320F822F022E000C990B3630B5
:1013400010F4C79707C02156263018F48755910925
:1013500001C0C097282F2295207F309194034FEB36
:10136000430F832F032E000C990B463010F4C797C0
:1013700007C03156363018F48755910901C0C0971F
:10138000820F909191038913DAC08091B6039091F6
:10139000B703A091B803B091B9030196A11DB11D87
:1013A0008093B6039093B703A093B803B093B903A7
:1013B0008091A503882399F08091AE039091AF03AB
:1013C000A091B003B091B1030196A11DB11D80930E
:1013D000AE039093AF03A093B003B093B103109109
:1013E000A2031123B9F1113009F082C08FE293E01A
:1013F0000E94F4058DE393E00E94F4058091A5031B
:10140000882309F475C087E0EDE1F3E0AFE0B3E0D5
:1014100001900D928A95E1F787E0E4E2F3E0A6E11E
:10142000B3E001900D928A95E1F70E94D307609393
:101430002B0370932C0380932D0390932E03109312
:101440000E0310930D038BE493E00E94DD0589E504
:1014500093E04CC08DE393E00E94F4058091A503D6
:10146000882321F187E0EDE1F3E0AFE0B3E0019004
:101470000D928A95E1F787E0E4E2F3E0A6E1B3E0BC
:1014800001900D928A95E1F70E94D30760932B0398
:1014900070932C0380932D0390932E03D0930E030F
:1014A000D0930D0387E693E00E94DD0580917F03D2
:1014B00090918003A0918103B091820380937B037C
:1014C00090937C03A0937D03B0937E030E94D30787
:1014D00060937703709378038093790390937A03F2
:1014E000D0937603D093750383E893E00E94DD05E3
:1014F0000091A8031091A9030115110509F445C134
:10150000E091A803F091A90366A177A1F80186A153
:1015100097A10E946711892B09F037C1B801C80152
:1015200040960E9470110E94D307F80160A371A336
:1015300082A393A3D5A3D4A302A513A5DDCF809145
:10154000B2039091B303A091B403B091B503019697
:10155000A11DB11D8093B2039093B303A093B40374
:10156000B093B50310C19091A303911145C068E3F6
:1015700071E083E993E00E946711892B41F06EE3EB
:1015800071E083E993E00E946711892B19F4D093ED
:10159000A20315C064E471E083E993E00E9467113F
:1015A000892B41F06AE471E083E993E00E946711BE
:1015B000892B19F41092A20302C03092A2038091E9
:1015C000A6039091A7039093A9038093A803009189
:1015D000A8031091A9030115110509F4D4C063E90A
:1015E00073E0F80186A197A10E94671197FFC5C01B
:1015F000F80182A593A5E7CFE091A203E23009F4B8
:1016000091C080919303882309F48CC020E2E29F6B
:10161000F0011124E92B3197E932F10508F082C07D
:10162000EC5CFF4F0C943F1183E993E00E9493061A
:101630006093430370934403809345039093460360
:1016400071C091E0813409F043C043C06DE173E0A3
:1016500009C091E0833509F090E09093230362C0C4
:1016600064E273E083E993E00E940B065BC091E0C3
:10167000873509F090E090932A0354C083E993E002
:101680000E9493066093550370935603809357030B
:101690009093580347C083E993E00E9493066093B8
:1016A00063037093640380936503909366033AC069
:1016B00083E993E00E94950E60933503709336039F
:1016C00080933703909338032DC091E081330CF45D
:1016D00090E09093A50326C083E993E00E94950EC5
:1016E00060937F03709380038093810390938203C0
:1016F00019C083E993E00E94930660938D03709371
:101700008E0380938F03909390030CC083E993E042
:101710000E94930660937103709372038093730326
:10172000909374030091A8031091A903011511056A
:1017300051F1E091A803F091A90366A177A1F80106
:1017400086A197A10E946711892BE9F4F80120A5D1
:1017500031A58091A30390E082179307A4F0281786
:10176000390739F440E150E063E973E0C8010E94B1
:101770007711F80102A513A5D9CF892B21F010927A
:10178000A9031092A80380E001C081E09091A30317
:101790009F5F9093A3031092A40391E0CA3209F0D3
:1017A00090E090939203811122C0C9C11092A403CA
:1017B0001092A303109291033092A203109292030D
:1017C0001092A503BCC1EE3040F481E08E0F8093EF
:1017D000A403F0E0ED56FC4FC08380919203811189
:1017E000AEC180919103C827C0939103A8C1809195
:1017F0000D03882309F4A6C180912F03882309F4DF
:10180000A1C180913D03882309F49CC169E971E07D
:1018100084E692E00E94BB0310920E0360911103D4
:101820007091120380911303909114030E94E40FAE
:1018300028E23BE64EE65EE40E94430F2B013C01AA
:1018400060910F037091100380E090E00E94E40F1C
:101850009B01AC01C301B2010E94D20E209115037D
:10186000AB01BC012111705826E084E692E00E9491
:10187000D50260E571E084E692E00E94770263E5BC
:1018800071E084E692E00E94BB0310920E03609127
:1018900018037091190380911A0390911B030E9401
:1018A000E40F28E23BE64EE65EE40E94430F2B0184
:1018B0003C01609116037091170380E090E00E9454
:1018C000E40F9B01AC01C301B2010E94D20E209132
:1018D0001C03AB01BC012111705826E084E692E0A4
:1018E0000E94D50260E571E084E692E00E947702F2
:1018F00080E00E9411076FE571E08AEB93E00E949F
:10190000BB0310920E03609111037091120380913A
:101910001303909114030E94E40F28E23BE64EE685
:101920005EE40E94430F2B013C0160910F03709114
:10193000100380E090E00E94E40F9B01AC01C30122
:10194000B2010E94D20E20911503AB01BC012111FE
:10195000705826E08AEB93E00E94D50281E00E9455
:10196000110766E671E08AEB93E00E94BB031092D8
:101970000E03609118037091190380911A039091DE
:101980001B030E94E40F28E23BE64EE65EE40E9461
:10199000430F2B013C01609116037091170380E007
:1019A00090E00E94E40F9B01AC01C301B2010E94D0
:1019B000D20E20911C03AB01BC012111705826E00E
:1019C0008AEB93E00E94D50260ED77E080E090E042
:1019D0000E9499070E943F0780E00E9411076DE670
:1019E00071E08AEB93E00E94BB0310923003609198
:1019F0003103709132038091330390913403A70136
:101A000096010E941D11CA01B901A70196010E9409
:101A10001D11862F0E944A0765E771E08AEB93E06B
:101A20000E94BB0310923003609131037091320326
:101A30008091330390913403A70196010E941D11F8
:101A40006053784FAB0160E070E02AE08AEB93E0EE
:101A50000E948C0281E00E94110767E771E08AEB27
:101A600093E00E94BB0310923E0360913F0370918C
:101A700040038091410390914203A50194010E948B
:101A80001D11822F0E944A076FE771E08AEB93E0F5
:101A90000E94BB0310923E0360913F03709140038C
:101AA0008091410390914203A50194010E941D1170
:101AB000822F0E944A076FE771E08AEB93E00E9451
:101AC000BB0310923E0360913F03709140038091ED
:101AD00041039091420320E137E240E050E00E9450
:101AE0001D11CA01B901A70196010E941D11862F7F
:101AF0000E944A076FE771E08AEB93E00E94BB0304
:101B000010923E0360913F03709140038091410326
:101B100090914203A70196010E941D11CA01B901CB
:101B2000A70196010E941D11862F0E944A0760EDB1
:101B300077E080E090E00E9499070E943F070E94B2
:101B4000AD01B2CB61E871E084E692E00E947702D9
:101B500060E571E084E692E00E947702F0CFE4E66F
:101B6000F2E01382128288EE93E0A0E0B0E084837A
:101B70009583A683B7832CE031E03183208325EC65
:101B800030E03587248724EC30E03787268720EC47
:101B900030E0318B208B21EC30E0338B228B22EC38
:101BA00030E0358B248B26EC30E0378B268B118E82
:101BB000128E138E148EE1E0F3E01382128284837E
:101BC0009583A683B7838EE191E091838083EAEBCE
:101BD000F3E01382128280E391E09183808380E2BC
:101BE000848380E1808782E08187128698E09387F2
:101BF000EDE0F3E0108211821382128214821582CA
:101C00001682178210861286118613861486158610
:101C100016861786118A108A128A138A148A158AE0
:101C2000168A108E178A118E128E138E148E158EB0
:101C300012A213A214A215A216A217A210AA11AAE8
:101C400012AA13AA14AA15AA16AE17AE109251031F
:101C5000109252031092530310925403109259039E
:101C600010925A0310925F03109260031092610366
:101C700010926203109267031092680310926D0332
:101C800010926E0310926F031092700310927503FE
:101C90001092760310927B0310927C0310927D03C6
:101CA00010927E0310928303109284031092890392
:101CB00010928A0310928B0310928C03109291035E
:101CC000109292038093A2031092A3031092A40394
:101CD0001092A5031092A7031092A6031092A903D5
:101CE0001092A8031092AA031092AB031092AC03B7
:101CF0001092AD031092AE031092AF031092B00396
:101D00001092B1031092B2031092B3031092B40375
:101D10001092B5031092B6031092B7031092B80355
:101D20001092B9031092930308951F93FC01992711
:101D30008827BC01E89411911032E9F3193010F0B2
:101D40001E30C8F31B3251F01D3249F4689406C0AE
:101D50000E94BC0E610F711D811D911D11911053C8
:101D60001A30B0F33EF490958095709561957F4F51
:101D70008F4F9F4F1F910895592F482F372F262F90
:101D8000660F771F881F991F660F771F881F991F7F
:101D9000620F731F841F951F660F771F881F991F7F
:101DA00008955058BB27AA270E94E90E0C945C1096
:101DB0000E944E1038F00E94551020F039F49F3FD9
:101DC00019F426F40C944B100EF4E095E7FB0C94F8
:101DD0004510E92F0E946D1058F3BA176207730778
:101DE0008407950720F079F4A6F50C948F100EF473
:101DF000E0950B2EBA2FA02D0B01B90190010C011B
:101E0000CA01A0011124FF27591B99F0593F50F432
:101E1000503E68F11A16F040A22F232F342F44278A
:101E2000585FF3CF469537952795A795F040539582
:101E3000C9F77EF41F16BA0B620B730B840BBAF052
:101E40009150A1F0FF0FBB1F661F771F881FC2F7BD
:101E50000EC0BA0F621F731F841F48F487957795D1
:101E60006795B795F7959E3F08F0B0CF9395880F8B
:101E700008F09927EE0F9795879508950E942110F5
:101E800008F481E008950E94570F0C945C100E94A2
:101E9000551058F00E944E1040F029F45F3F29F091
:101EA0000C94451051110C9490100C944B100E94FE
:101EB0006D1068F39923B1F3552391F3951B550BDE
:101EC000BB27AA2762177307840738F09F5F5F4F0D
:101ED000220F331F441FAA1FA9F335D00E2E3AF04C
:101EE000E0E832D091505040E695001CCAF72BD064
:101EF000FE2F29D0660F771F881FBB1F26173707B5
:101F00004807AB07B0E809F0BB0B802DBF01FF27E6
:101F100093585F4F3AF09E3F510578F00C9445106E
:101F20000C9490105F3FE4F3983ED4F38695779538
:101F30006795B795F7959F5FC9F7880F911D96959F
:101F4000879597F90895E1E0660F771F881FBB1FFB
:101F5000621773078407BA0720F0621B730B840BA8
:101F6000BA0BEE1F88F7E09508950E94751088F06F
:101F70009F5798F0B92F9927B751B0F0E1F0660F4D
:101F8000771F881F991F1AF0BA95C9F714C0B1308E
:101F900091F00E948F10B1E008950C948F10672F7C
:101FA000782F8827B85F39F0B93FCCF386957795BD
:101FB0006795B395D9F73EF49095809570956195A6
:101FC0007F4F8F4F9F4F0895E89409C097FB3EF4D1
:101FD00090958095709561957F4F8F4F9F4F992376
:101FE000A9F0F92F96E9BB279395F69587957795F4
:101FF0006795B795F111F8CFFAF4BB0F11F460FFB4
:102000001BC06F5F7F4F8F4F9F4F16C0882311F00B
:1020100096E911C0772321F09EE8872F762F05C01F
:10202000662371F096E8862F70E060E02AF09A95BA
:10203000660F771F881FDAF7880F9695879597F9AF
:102040000895990F0008550FAA0BE0E8FEEF161649
:102050001706E807F907C0F012161306E407F5079C
:1020600098F0621B730B840B950B39F40A2661F010
:10207000232B242B252B21F408950A2609F4A140B3
:10208000A6958FEF811D811D089597F99F6780E8C0
:1020900070E060E008959FEF80EC089500240A94BA
:1020A0001616170618060906089500240A94121633
:1020B0001306140605060895092E0394000C11F466
:1020C000882352F0BB0F40F4BF2B11F460FF04C013
:1020D0006F5F7F4F8F4F9F4F089557FD9058440F6C
:1020E000551F59F05F3F71F04795880F97FB991F77
:1020F00061F09F3F79F08795089512161306140634
:10210000551FF2CF4695F1DF08C0161617061806C0
:10211000991FF1CF86957105610508940895E8949B
:10212000BB2766277727CB0197F908950E942110D6
:1021300008F48FEF08950E94AE100C945C100E947A
:102140004E1038F00E94551020F0952311F00C9499
:1021500045100C944B1011240C9490100E946D109B
:1021600070F3959FC1F3950F50E0551F629FF001EA
:10217000729FBB27F00DB11D639FAA27F00DB11D03
:10218000AA1F649F6627B00DA11D661F829F22278C
:10219000B00DA11D621F739FB00DA11D621F839F13
:1021A000A00D611D221F749F3327A00D611D231FE9
:1021B000849F600D211D822F762F6A2F11249F5737
:1021C00050409AF0F1F088234AF0EE0FFF1FBB1F3A
:1021D000661F771F881F91505040A9F79E3F5105F9
:1021E00080F00C9445100C9490105F3FE4F3983EFF
:1021F000D4F3869577956795B795F795E7959F5FA3
:10220000C1F7FE2B880F911D9695879597F9089534
:102210000E942110880B990B0895DB018F939F93E7
:102220000E944511BF91AF91A29F800D911DA39F68
:10223000900DB29F900D11240895A1E21A2EAA1BB1
:10224000BB1BFD010DC0AA1FBB1FEE1FFF1FA21766
:10225000B307E407F50720F0A21BB30BE40BF50B63
:10226000661F771F881F991F1A9469F760957095EC
:10227000809590959B01AC01BD01CF010895EE0FB3
:10228000FF1F0590F491E02D09940E945811A59F1D
:10229000900DB49F900DA49F800D911D1124089561
:1022A000B7FF0C9445110E944511821B930B0895B2
:1022B000A29FB001B39FC001A39F700D811D112487
:1022C000911DB29F700D811D1124911D0895FB0178
:1022D000DC018D91019080190110D9F3990B0895BB
:1022E000FB01DC0101900D920020E1F70895FB0154
:1022F000DC014150504048F001900D920020C9F798
:1023000001C01D9241505040E0F70895F894FFCF6E
:102310000000400014005400000000003E01AB002B
:10232000D5008B010601E400F80000000000440223
:1023300017027402EB010F02FB01EC010000000028
:10234000A904AB00740273024750524D4300474E3C
:10235000524D4300475047474100474E47474100D1
:102360000D0A004C6F6E6769747564653A20004C05
:1023700061742D3E20004C6F6E2D3E200044617430
:10238000652D3E20002F0054696D652D3E20003ADA
:10239000004C6F636174696F6E3A204E6F74204118
:1023A0007661696C61626C65004C61746974756416
:1023B000653A20006E616E00696E66006F76660099
:00000001FF
